{
  "contractName": "TransactionManagement",
  "abi": [
    {
      "anonymous": false,
      "inputs": [
        {
          "indexed": false,
          "internalType": "address",
          "name": "rc",
          "type": "address"
        },
        {
          "indexed": false,
          "internalType": "uint256",
          "name": "date",
          "type": "uint256"
        },
        {
          "indexed": false,
          "internalType": "string",
          "name": "wasteType",
          "type": "string"
        },
        {
          "indexed": false,
          "internalType": "uint256",
          "name": "quantity",
          "type": "uint256"
        },
        {
          "indexed": false,
          "internalType": "uint256",
          "name": "price",
          "type": "uint256"
        }
      ],
      "name": "TransactionAdded",
      "type": "event"
    },
    {
      "inputs": [
        {
          "internalType": "uint256",
          "name": "date",
          "type": "uint256"
        },
        {
          "internalType": "string",
          "name": "wasteType",
          "type": "string"
        },
        {
          "internalType": "uint256",
          "name": "quantity",
          "type": "uint256"
        },
        {
          "internalType": "uint256",
          "name": "price",
          "type": "uint256"
        }
      ],
      "name": "addTransaction",
      "outputs": [],
      "stateMutability": "nonpayable",
      "type": "function"
    },
    {
      "inputs": [],
      "name": "getTransactions",
      "outputs": [
        {
          "components": [
            {
              "internalType": "uint256",
              "name": "date",
              "type": "uint256"
            },
            {
              "internalType": "string",
              "name": "wasteType",
              "type": "string"
            },
            {
              "internalType": "uint256",
              "name": "quantity",
              "type": "uint256"
            },
            {
              "internalType": "uint256",
              "name": "price",
              "type": "uint256"
            }
          ],
          "internalType": "struct TransactionManagement.Transaction[]",
          "name": "",
          "type": "tuple[]"
        }
      ],
      "stateMutability": "view",
      "type": "function",
      "constant": true
    },
    {
      "inputs": [],
      "name": "getBadgeStatus",
      "outputs": [
        {
          "internalType": "string",
          "name": "",
          "type": "string"
        }
      ],
      "stateMutability": "nonpayable",
      "type": "function"
    }
  ],
  "bytecode": "0x608060405234801561001057600080fd5b50610f17806100206000396000f3fe608060405234801561001057600080fd5b50600436106100415760003560e01c806332fac130146100465780635bec51811461006457806383920e9014610080575b600080fd5b61004e61009e565b60405161005b9190610732565b60405180910390f35b61007e600480360381019061007991906108d3565b610176565b005b6100886102d5565b6040516100959190610ad4565b60405180910390f35b60606100a933610426565b600260003373ffffffffffffffffffffffffffffffffffffffff1673ffffffffffffffffffffffffffffffffffffffff16815260200190815260200160002080546100f390610b25565b80601f016020809104026020016040519081016040528092919081815260200182805461011f90610b25565b801561016c5780601f106101415761010080835404028352916020019161016c565b820191906000526020600020905b81548152906001019060200180831161014f57829003601f168201915b5050505050905090565b600060405180608001604052808681526020018581526020018481526020018381525090506000803373ffffffffffffffffffffffffffffffffffffffff1673ffffffffffffffffffffffffffffffffffffffff1681526020019081526020016000208190806001815401808255809150506001900390600052602060002090600402016000909190919091506000820151816000015560208201518160010190816102229190610d02565b50604082015181600201556060820151816003015550507fff321b3040d5600d79cba6a3951980235ae0a2c4a05d17dc3c0b8070a53ddacf3386868686604051610270959493929190610e24565b60405180910390a182600160003373ffffffffffffffffffffffffffffffffffffffff1673ffffffffffffffffffffffffffffffffffffffff16815260200190815260200160002060008282546102c79190610ead565b925050819055505050505050565b606060008060003373ffffffffffffffffffffffffffffffffffffffff1673ffffffffffffffffffffffffffffffffffffffff168152602001908152602001600020805480602002602001604051908101604052809291908181526020016000905b8282101561041957838290600052602060002090600402016040518060800160405290816000820154815260200160018201805461037490610b25565b80601f01602080910402602001604051908101604052809291908181526020018280546103a090610b25565b80156103ed5780601f106103c2576101008083540402835291602001916103ed565b820191906000526020600020905b8154815290600101906020018083116103d057829003601f168201915b505050505081526020016002820154815260200160038201548152505081526020019060010190610337565b5050505090508091505090565b6000600160008373ffffffffffffffffffffffffffffffffffffffff1673ffffffffffffffffffffffffffffffffffffffff1681526020019081526020016000205490506103e881106104fa576040518060400160405280600481526020017f476f6c6400000000000000000000000000000000000000000000000000000000815250600260008473ffffffffffffffffffffffffffffffffffffffff1673ffffffffffffffffffffffffffffffffffffffff16815260200190815260200160002090816104f49190610d02565b5061069e565b6101f4811061058a576040518060400160405280600681526020017f53696c7665720000000000000000000000000000000000000000000000000000815250600260008473ffffffffffffffffffffffffffffffffffffffff1673ffffffffffffffffffffffffffffffffffffffff16815260200190815260200160002090816105849190610d02565b5061069d565b60648110610619576040518060400160405280600681526020017f42726f6e7a650000000000000000000000000000000000000000000000000000815250600260008473ffffffffffffffffffffffffffffffffffffffff1673ffffffffffffffffffffffffffffffffffffffff16815260200190815260200160002090816106139190610d02565b5061069c565b6040518060400160405280600881526020017f4e6f204261646765000000000000000000000000000000000000000000000000815250600260008473ffffffffffffffffffffffffffffffffffffffff1673ffffffffffffffffffffffffffffffffffffffff168152602001908152602001600020908161069a9190610d02565b505b5b5b5050565b600081519050919050565b600082825260208201905092915050565b60005b838110156106dc5780820151818401526020810190506106c1565b60008484015250505050565b6000601f19601f8301169050919050565b6000610704826106a2565b61070e81856106ad565b935061071e8185602086016106be565b610727816106e8565b840191505092915050565b6000602082019050818103600083015261074c81846106f9565b905092915050565b6000604051905090565b600080fd5b600080fd5b6000819050919050565b61077b81610768565b811461078657600080fd5b50565b60008135905061079881610772565b92915050565b600080fd5b600080fd5b7f4e487b7100000000000000000000000000000000000000000000000000000000600052604160045260246000fd5b6107e0826106e8565b810181811067ffffffffffffffff821117156107ff576107fe6107a8565b5b80604052505050565b6000610812610754565b905061081e82826107d7565b919050565b600067ffffffffffffffff82111561083e5761083d6107a8565b5b610847826106e8565b9050602081019050919050565b82818337600083830152505050565b600061087661087184610823565b610808565b905082815260208101848484011115610892576108916107a3565b5b61089d848285610854565b509392505050565b600082601f8301126108ba576108b961079e565b5b81356108ca848260208601610863565b91505092915050565b600080600080608085870312156108ed576108ec61075e565b5b60006108fb87828801610789565b945050602085013567ffffffffffffffff81111561091c5761091b610763565b5b610928878288016108a5565b935050604061093987828801610789565b925050606061094a87828801610789565b91505092959194509250565b600081519050919050565b600082825260208201905092915050565b6000819050602082019050919050565b61098b81610768565b82525050565b600082825260208201905092915050565b60006109ad826106a2565b6109b78185610991565b93506109c78185602086016106be565b6109d0816106e8565b840191505092915050565b60006080830160008301516109f36000860182610982565b5060208301518482036020860152610a0b82826109a2565b9150506040830151610a206040860182610982565b506060830151610a336060860182610982565b508091505092915050565b6000610a4a83836109db565b905092915050565b6000602082019050919050565b6000610a6a82610956565b610a748185610961565b935083602082028501610a8685610972565b8060005b85811015610ac25784840389528151610aa38582610a3e565b9450610aae83610a52565b925060208a01995050600181019050610a8a565b50829750879550505050505092915050565b60006020820190508181036000830152610aee8184610a5f565b905092915050565b7f4e487b7100000000000000000000000000000000000000000000000000000000600052602260045260246000fd5b60006002820490506001821680610b3d57607f821691505b602082108103610b5057610b4f610af6565b5b50919050565b60008190508160005260206000209050919050565b60006020601f8301049050919050565b600082821b905092915050565b600060088302610bb87fffffffffffffffffffffffffffffffffffffffffffffffffffffffffffffffff82610b7b565b610bc28683610b7b565b95508019841693508086168417925050509392505050565b6000819050919050565b6000610bff610bfa610bf584610768565b610bda565b610768565b9050919050565b6000819050919050565b610c1983610be4565b610c2d610c2582610c06565b848454610b88565b825550505050565b600090565b610c42610c35565b610c4d818484610c10565b505050565b5b81811015610c7157610c66600082610c3a565b600181019050610c53565b5050565b601f821115610cb657610c8781610b56565b610c9084610b6b565b81016020851015610c9f578190505b610cb3610cab85610b6b565b830182610c52565b50505b505050565b600082821c905092915050565b6000610cd960001984600802610cbb565b1980831691505092915050565b6000610cf28383610cc8565b9150826002028217905092915050565b610d0b826106a2565b67ffffffffffffffff811115610d2457610d236107a8565b5b610d2e8254610b25565b610d39828285610c75565b600060209050601f831160018114610d6c5760008415610d5a578287015190505b610d648582610ce6565b865550610dcc565b601f198416610d7a86610b56565b60005b82811015610da257848901518255600182019150602085019450602081019050610d7d565b86831015610dbf5784890151610dbb601f891682610cc8565b8355505b6001600288020188555050505b505050505050565b600073ffffffffffffffffffffffffffffffffffffffff82169050919050565b6000610dff82610dd4565b9050919050565b610e0f81610df4565b82525050565b610e1e81610768565b82525050565b600060a082019050610e396000830188610e06565b610e466020830187610e15565b8181036040830152610e5881866106f9565b9050610e676060830185610e15565b610e746080830184610e15565b9695505050505050565b7f4e487b7100000000000000000000000000000000000000000000000000000000600052601160045260246000fd5b6000610eb882610768565b9150610ec383610768565b9250828201905080821115610edb57610eda610e7e565b5b9291505056fea2646970667358221220e93901fbe42e1600c549a4de7eb703ea98456ebff53d8d1785ad68e52cab5c1d64736f6c63430008130033",
  "immutableReferences": {},
  "source": "\r\n// SPDX-License-Identifier: MIT\r\npragma solidity ^0.8.0;\r\ncontract TransactionManagement {\r\n\r\n    struct Transaction {\r\n        uint256 date;\r\n        string wasteType;\r\n        uint256 quantity;\r\n        uint256 price;\r\n    }\r\n\r\n    // Mapping to store transactions for each recycling center\r\n    mapping(address => Transaction[])  private recyclingCenterTransactions;\r\n    mapping(address => uint256)  private recyclingCenterTotalQuantity;\r\n     // Mapping to store badge status for each recycling center\r\n    mapping(address => string) private recyclingCenterBadges;\r\n    event TransactionAdded(address rc,uint256 date,string wasteType,uint256 quantity,uint256 price);\r\n    // Function to add a transaction for a recycling center\r\n    function addTransaction(\r\n        uint256 date,\r\n        string memory wasteType,\r\n        uint256 quantity,\r\n        uint256 price\r\n    ) public {\r\n        Transaction memory newTransaction = Transaction(date, wasteType, quantity, price);\r\n        recyclingCenterTransactions[msg.sender].push(newTransaction);\r\n        emit TransactionAdded(msg.sender, date, wasteType, quantity, price);\r\n        recyclingCenterTotalQuantity[msg.sender]+=quantity;\r\n    }\r\n    // Function to get all transactions for a recycling center\r\n    function getTransactions() public view returns (Transaction[] memory) {\r\n         Transaction[] memory transactions = recyclingCenterTransactions[msg.sender];\r\n         return transactions;\r\n    }\r\n\r\n     function updateBadgeStatus(address recyclingCenter) internal {\r\n        uint256 totalQuantity = recyclingCenterTotalQuantity[recyclingCenter];\r\n        if (totalQuantity >= 1000) {\r\n            recyclingCenterBadges[recyclingCenter] = \"Gold\";\r\n        } else if (totalQuantity >= 500) {\r\n            recyclingCenterBadges[recyclingCenter] = \"Silver\";\r\n        } else if (totalQuantity >= 100) {\r\n            recyclingCenterBadges[recyclingCenter] = \"Bronze\";\r\n        }\r\n        else {\r\n            recyclingCenterBadges[recyclingCenter] = \"No Badge\";\r\n        }\r\n    }\r\n\r\n    // Function to get the badge status for a recycling center\r\n    function getBadgeStatus() public  returns (string memory) {\r\n        updateBadgeStatus(msg.sender);\r\n        return recyclingCenterBadges[msg.sender];\r\n    }\r\n}",
  "sourcePath": "C:\\Users\\ridha\\AndroidStudioProjects\\bricolini\\blockchain\\contracts\\TransactionManagemennt.sol",
  "compiler": {
    "name": "solc",
    "version": "0.8.19+commit.7dd6d404.Emscripten.clang"
  },
  "schemaVersion": "3.4.14",
  "updatedAt": "2023-07-28T09:07:16.418Z",
  "networkType": "ethereum",
  "devdoc": {
    "kind": "dev",
    "methods": {},
    "version": 1
  },
  "userdoc": {
    "kind": "user",
    "methods": {},
    "version": 1
  }
}